{
  "transactions": [
    {
      "hash": "0x107fba2791b5d72e5181a6672ff8de57233ba4bafe3d2ec44031f31098cca9b4",
      "transactionType": "CALL",
      "contractName": null,
      "contractAddress": "0xea8ae08513f8230caa8d031d28cb4ac8ce720c68",
      "function": "setTokenForSwap(address,uint256)",
      "arguments": [
        "0x514910771AF9Ca656af840dff83E8264EcF986CA",
        "10000000000000000000"
      ],
      "transaction": {
        "from": "0xf39fd6e51aad88f6f4ce6ab8827279cfffb92266",
        "to": "0xea8ae08513f8230caa8d031d28cb4ac8ce720c68",
        "gas": "0x3ef62",
        "value": "0x0",
        "input": "0x7be0f9b6000000000000000000000000514910771af9ca656af840dff83e8264ecf986ca0000000000000000000000000000000000000000000000008ac7230489e80000",
        "nonce": "0x2a5",
        "chainId": "0x1"
      },
      "additionalContracts": [],
      "isFixedGasLimit": false
    }
  ],
  "receipts": [
    {
      "status": "0x1",
      "cumulativeGasUsed": "0x2d954",
      "logs": [
        {
          "address": "0xea8ae08513f8230caa8d031d28cb4ac8ce720c68",
          "topics": [
            "0x3da7e3d01889c1c492c3adcd6ab831b790b8059c91252ec169b263985c86d6d6",
            "0x000000000000000000000000f39fd6e51aad88f6f4ce6ab8827279cfffb92266",
            "0x000000000000000000000000514910771af9ca656af840dff83e8264ecf986ca",
            "0x0000000000000000000000000000000000000000000000008ac7230489e80000"
          ],
          "data": "0x",
          "blockHash": "0xf43c436d4f5b96916c832f706c923d243d4c58c6cde5e3f7175c97ce2b879f50",
          "blockNumber": "0x1312d03",
          "blockTimestamp": "0x665ba290",
          "transactionHash": "0x107fba2791b5d72e5181a6672ff8de57233ba4bafe3d2ec44031f31098cca9b4",
          "transactionIndex": "0x0",
          "logIndex": "0x0",
          "removed": false
        }
      ],
      "logsBloom": "0x00000000040000000000000000000000000000000000000000000000000000000000000000000000000000000000000000000000000000000000000000000000000000000000000000000800000000000000020000000000000000000000000000000000000000000000000100000000000000000000000000000000000000000000000000000000000000000000000000000000000000000000200000000001000000000000000000000000000000000000000000000000000000000000002000000000000000200000000000000000000000002000000000080000000000040000000000000000000000000000030000000000000000000000000008000008",
      "type": "0x2",
      "transactionHash": "0x107fba2791b5d72e5181a6672ff8de57233ba4bafe3d2ec44031f31098cca9b4",
      "transactionIndex": "0x0",
      "blockHash": "0xf43c436d4f5b96916c832f706c923d243d4c58c6cde5e3f7175c97ce2b879f50",
      "blockNumber": "0x1312d03",
      "gasUsed": "0x2d954",
      "effectiveGasPrice": "0xdfa1a60a",
      "blobGasPrice": "0x1",
      "from": "0xf39fd6e51aad88f6f4ce6ab8827279cfffb92266",
      "to": "0xea8ae08513f8230caa8d031d28cb4ac8ce720c68",
      "contractAddress": null
    }
  ],
  "libraries": [],
  "pending": [],
  "returns": {},
  "timestamp": 1734982892,
  "chain": 1,
  "commit": "364b98b"
}